{
  "contractName": "SetValues",
  "abi": [
    {
      "inputs": [
        {
          "internalType": "string",
          "name": "_name",
          "type": "string"
        }
      ],
      "name": "setName",
      "outputs": [],
      "stateMutability": "nonpayable",
      "type": "function"
    },
    {
      "inputs": [],
      "name": "getName",
      "outputs": [
        {
          "internalType": "string",
          "name": "",
          "type": "string"
        }
      ],
      "stateMutability": "view",
      "type": "function",
      "constant": true
    },
    {
      "inputs": [
        {
          "internalType": "uint256",
          "name": "_age",
          "type": "uint256"
        }
      ],
      "name": "setAge",
      "outputs": [],
      "stateMutability": "nonpayable",
      "type": "function"
    },
    {
      "inputs": [],
      "name": "getAge",
      "outputs": [
        {
          "internalType": "uint256",
          "name": "",
          "type": "uint256"
        }
      ],
      "stateMutability": "view",
      "type": "function",
      "constant": true
    }
  ],
  "bytecode": "0x608060405234801561001057600080fd5b50610599806100206000396000f3fe608060405234801561001057600080fd5b506004361061004c5760003560e01c806317d7de7c14610051578063967e6e651461006f578063c47f00271461008d578063d5dcf127146100a9575b600080fd5b6100596100c5565b60405161006691906102c1565b60405180910390f35b610077610157565b60405161008491906102fc565b60405180910390f35b6100a760048036038101906100a29190610460565b610161565b005b6100c360048036038101906100be91906104d5565b61017b565b005b6060600080546100d490610531565b80601f016020809104026020016040519081016040528092919081815260200182805461010090610531565b801561014d5780601f106101225761010080835404028352916020019161014d565b820191906000526020600020905b81548152906001019060200180831161013057829003601f168201915b5050505050905090565b6000600154905090565b8060009080519060200190610177929190610185565b5050565b8060018190555050565b82805461019190610531565b90600052602060002090601f0160209004810192826101b357600085556101fa565b82601f106101cc57805160ff19168380011785556101fa565b828001600101855582156101fa579182015b828111156101f95782518255916020019190600101906101de565b5b509050610207919061020b565b5090565b5b8082111561022457600081600090555060010161020c565b5090565b600081519050919050565b600082825260208201905092915050565b60005b83811015610262578082015181840152602081019050610247565b83811115610271576000848401525b50505050565b6000601f19601f8301169050919050565b600061029382610228565b61029d8185610233565b93506102ad818560208601610244565b6102b681610277565b840191505092915050565b600060208201905081810360008301526102db8184610288565b905092915050565b6000819050919050565b6102f6816102e3565b82525050565b600060208201905061031160008301846102ed565b92915050565b6000604051905090565b600080fd5b600080fd5b600080fd5b600080fd5b7f4e487b7100000000000000000000000000000000000000000000000000000000600052604160045260246000fd5b61036d82610277565b810181811067ffffffffffffffff8211171561038c5761038b610335565b5b80604052505050565b600061039f610317565b90506103ab8282610364565b919050565b600067ffffffffffffffff8211156103cb576103ca610335565b5b6103d482610277565b9050602081019050919050565b82818337600083830152505050565b60006104036103fe846103b0565b610395565b90508281526020810184848401111561041f5761041e610330565b5b61042a8482856103e1565b509392505050565b600082601f8301126104475761044661032b565b5b81356104578482602086016103f0565b91505092915050565b60006020828403121561047657610475610321565b5b600082013567ffffffffffffffff81111561049457610493610326565b5b6104a084828501610432565b91505092915050565b6104b2816102e3565b81146104bd57600080fd5b50565b6000813590506104cf816104a9565b92915050565b6000602082840312156104eb576104ea610321565b5b60006104f9848285016104c0565b91505092915050565b7f4e487b7100000000000000000000000000000000000000000000000000000000600052602260045260246000fd5b6000600282049050600182168061054957607f821691505b6020821081141561055d5761055c610502565b5b5091905056fea2646970667358221220dd27750a5c24e022c222c3f52a461de093dca012d405d3f26047bf46b780c68864736f6c634300080a0033",
  "immutableReferences": {},
  "source": "pragma solidity 0.8.10;\n\ncontract SetValues {\n\n    string name;\n    uint age;\n    uint[] ids;\n\n    function setName(string memory _name) external  {\n        name = _name;\n    }\n\n    function getName() external view returns (string memory) {\n        return name;\n    }\n\n    function setAge(uint _age) external  {\n        age = _age;\n    }\n\n    function getAge() external view returns (uint) {\n        return age;\n    }\n\n}",
  "sourcePath": "/Users/victorogbebor/Documents/DevStuff/Solidity/Dapps/Dapp3/contracts/SetValuesContract.sol",
  "compiler": {
    "name": "solc",
    "version": "0.8.10+commit.fc410830.Emscripten.clang"
  },
  "schemaVersion": "3.4.3",
  "updatedAt": "2022-03-31T22:32:57.477Z",
  "networkType": "ethereum",
  "devdoc": {
    "kind": "dev",
    "methods": {},
    "version": 1
  },
  "userdoc": {
    "kind": "user",
    "methods": {},
    "version": 1
  }
}