{
  "contractName": "Bank",
  "abi": [
    {
      "inputs": [],
      "stateMutability": "nonpayable",
      "type": "constructor"
    },
    {
      "anonymous": false,
      "inputs": [
        {
          "indexed": false,
          "internalType": "uint256",
          "name": "decrease",
          "type": "uint256"
        }
      ],
      "name": "tokenDecrease",
      "type": "event"
    },
    {
      "anonymous": false,
      "inputs": [
        {
          "indexed": false,
          "internalType": "uint256",
          "name": "increase",
          "type": "uint256"
        }
      ],
      "name": "tokenIncrease",
      "type": "event"
    },
    {
      "anonymous": false,
      "inputs": [
        {
          "indexed": false,
          "internalType": "address",
          "name": "where",
          "type": "address"
        },
        {
          "indexed": true,
          "internalType": "address",
          "name": "recipient",
          "type": "address"
        },
        {
          "indexed": true,
          "internalType": "uint256",
          "name": "amountGiven",
          "type": "uint256"
        },
        {
          "indexed": true,
          "internalType": "uint256",
          "name": "tokenSent",
          "type": "uint256"
        }
      ],
      "name": "tokenPurchased",
      "type": "event"
    },
    {
      "anonymous": false,
      "inputs": [
        {
          "indexed": false,
          "internalType": "address",
          "name": "sender",
          "type": "address"
        },
        {
          "indexed": true,
          "internalType": "address",
          "name": "recipient",
          "type": "address"
        },
        {
          "indexed": true,
          "internalType": "uint256",
          "name": "amount",
          "type": "uint256"
        }
      ],
      "name": "tokenSent",
      "type": "event"
    },
    {
      "inputs": [],
      "name": "owner",
      "outputs": [
        {
          "internalType": "address",
          "name": "",
          "type": "address"
        }
      ],
      "stateMutability": "view",
      "type": "function"
    },
    {
      "inputs": [
        {
          "internalType": "address",
          "name": "",
          "type": "address"
        }
      ],
      "name": "tokenBalance",
      "outputs": [
        {
          "internalType": "uint256",
          "name": "",
          "type": "uint256"
        }
      ],
      "stateMutability": "view",
      "type": "function"
    },
    {
      "inputs": [],
      "name": "getBankAddress",
      "outputs": [
        {
          "internalType": "address",
          "name": "",
          "type": "address"
        }
      ],
      "stateMutability": "view",
      "type": "function"
    },
    {
      "inputs": [],
      "name": "getContactTokenBalance",
      "outputs": [
        {
          "internalType": "uint256",
          "name": "",
          "type": "uint256"
        }
      ],
      "stateMutability": "view",
      "type": "function"
    },
    {
      "inputs": [],
      "name": "getContactEtherBalance",
      "outputs": [
        {
          "internalType": "uint256",
          "name": "",
          "type": "uint256"
        }
      ],
      "stateMutability": "view",
      "type": "function"
    },
    {
      "inputs": [
        {
          "internalType": "address",
          "name": "search",
          "type": "address"
        }
      ],
      "name": "getEtherBalance",
      "outputs": [
        {
          "internalType": "uint256",
          "name": "",
          "type": "uint256"
        }
      ],
      "stateMutability": "view",
      "type": "function"
    },
    {
      "inputs": [],
      "name": "getTokenBalance",
      "outputs": [
        {
          "internalType": "uint256",
          "name": "",
          "type": "uint256"
        }
      ],
      "stateMutability": "view",
      "type": "function"
    },
    {
      "inputs": [],
      "name": "createToken",
      "outputs": [],
      "stateMutability": "nonpayable",
      "type": "function"
    },
    {
      "inputs": [],
      "name": "burnToken",
      "outputs": [],
      "stateMutability": "nonpayable",
      "type": "function"
    },
    {
      "inputs": [],
      "name": "purchaseToken",
      "outputs": [
        {
          "internalType": "bool",
          "name": "success",
          "type": "bool"
        }
      ],
      "stateMutability": "payable",
      "type": "function"
    },
    {
      "inputs": [
        {
          "internalType": "address payable",
          "name": "to",
          "type": "address"
        },
        {
          "internalType": "uint256",
          "name": "amount",
          "type": "uint256"
        }
      ],
      "name": "sendTokens",
      "outputs": [],
      "stateMutability": "nonpayable",
      "type": "function"
    }
  ],
  "bytecode": "0x6080604052670de0b6b3a764000060035534801561001c57600080fd5b50336000806101000a81548173ffffffffffffffffffffffffffffffffffffffff021916908373ffffffffffffffffffffffffffffffffffffffff16021790555030600160006101000a81548173ffffffffffffffffffffffffffffffffffffffff021916908373ffffffffffffffffffffffffffffffffffffffff160217905550606460026000600160009054906101000a900473ffffffffffffffffffffffffffffffffffffffff1673ffffffffffffffffffffffffffffffffffffffff1673ffffffffffffffffffffffffffffffffffffffff16815260200190815260200160002081905550611366806101146000396000f3fe60806040526004361061009c5760003560e01c80639cbf9e36116100645780639cbf9e3614610176578063a95c4d621461018d578063ad4f450c146101ab578063dc45d08e146101d6578063eedc966a14610213578063faa0a264146102505761009c565b806305ab421d146100a1578063246a491e146100ca57806366f780e9146100f557806382b2e257146101205780638da5cb5b1461014b575b600080fd5b3480156100ad57600080fd5b506100c860048036038101906100c39190610db9565b610267565b005b3480156100d657600080fd5b506100df61059e565b6040516100ec9190610e08565b60405180910390f35b34801561010157600080fd5b5061010a6105a6565b6040516101179190610e44565b60405180910390f35b34801561012c57600080fd5b506101356105d0565b6040516101429190610e08565b60405180910390f35b34801561015757600080fd5b50610160610617565b60405161016d9190610e44565b60405180910390f35b34801561018257600080fd5b5061018b61063b565b005b61019561087c565b6040516101a29190610e7a565b60405180910390f35b3480156101b757600080fd5b506101c0610a73565b6040516101cd9190610e08565b60405180910390f35b3480156101e257600080fd5b506101fd60048036038101906101f89190610ec1565b610aba565b60405161020a9190610e08565b60405180910390f35b34801561021f57600080fd5b5061023a60048036038101906102359190610ec1565b610adb565b6040516102479190610e08565b60405180910390f35b34801561025c57600080fd5b50610265610af3565b005b6000600260003373ffffffffffffffffffffffffffffffffffffffff1673ffffffffffffffffffffffffffffffffffffffff16815260200190815260200160002054116102e9576040517f08c379a00000000000000000000000000000000000000000000000000000000081526004016102e090610f4b565b60405180910390fd5b80600260003373ffffffffffffffffffffffffffffffffffffffff1673ffffffffffffffffffffffffffffffffffffffff16815260200190815260200160002054101561036b576040517f08c379a000000000000000000000000000000000000000000000000000000000815260040161036290610fb7565b60405180910390fd5b600260008373ffffffffffffffffffffffffffffffffffffffff1673ffffffffffffffffffffffffffffffffffffffff1681526020019081526020016000205481600260008573ffffffffffffffffffffffffffffffffffffffff1673ffffffffffffffffffffffffffffffffffffffff168152602001908152602001600020546103f69190611006565b10156104055761040461105c565b5b600260003373ffffffffffffffffffffffffffffffffffffffff1673ffffffffffffffffffffffffffffffffffffffff1681526020019081526020016000205481600260003373ffffffffffffffffffffffffffffffffffffffff1673ffffffffffffffffffffffffffffffffffffffff16815260200190815260200160002054610490919061108b565b111561049f5761049e61105c565b5b80600260003373ffffffffffffffffffffffffffffffffffffffff1673ffffffffffffffffffffffffffffffffffffffff16815260200190815260200160002060008282546104ee919061108b565b9250508190555080600260008473ffffffffffffffffffffffffffffffffffffffff1673ffffffffffffffffffffffffffffffffffffffff16815260200190815260200160002060008282546105449190611006565b92505081905550808273ffffffffffffffffffffffffffffffffffffffff167f16a1605b4e6210f29341360b5a5b4627b7ccf2bbb184f1d0c2ebe1a07ad4a315336040516105929190610e44565b60405180910390a35050565b600047905090565b6000600160009054906101000a900473ffffffffffffffffffffffffffffffffffffffff16905090565b6000600260003373ffffffffffffffffffffffffffffffffffffffff1673ffffffffffffffffffffffffffffffffffffffff16815260200190815260200160002054905090565b60008054906101000a900473ffffffffffffffffffffffffffffffffffffffff1681565b3373ffffffffffffffffffffffffffffffffffffffff1660008054906101000a900473ffffffffffffffffffffffffffffffffffffffff1673ffffffffffffffffffffffffffffffffffffffff16146106c9576040517f08c379a00000000000000000000000000000000000000000000000000000000081526004016106c09061110b565b60405180910390fd5b60008054906101000a900473ffffffffffffffffffffffffffffffffffffffff1673ffffffffffffffffffffffffffffffffffffffff163373ffffffffffffffffffffffffffffffffffffffff1614610757576040517f08c379a000000000000000000000000000000000000000000000000000000000815260040161074e90611177565b60405180910390fd5b60026000600160009054906101000a900473ffffffffffffffffffffffffffffffffffffffff1673ffffffffffffffffffffffffffffffffffffffff1673ffffffffffffffffffffffffffffffffffffffff16815260200190815260200160002060008154809291906107c990611197565b91905055507fd96782df2555b101653cfc9ede79422cc8c7f1bc48aadf0cb6477283a28f645a60026000600160009054906101000a900473ffffffffffffffffffffffffffffffffffffffff1673ffffffffffffffffffffffffffffffffffffffff1673ffffffffffffffffffffffffffffffffffffffff168152602001908152602001600020600081548092919061086190611197565b919050556040516108729190610e08565b60405180910390a1565b6000803460035460026000600160009054906101000a900473ffffffffffffffffffffffffffffffffffffffff1673ffffffffffffffffffffffffffffffffffffffff1673ffffffffffffffffffffffffffffffffffffffff168152602001908152602001600020546108ef91906111e0565b6108f99190611269565b11610939576040517f08c379a0000000000000000000000000000000000000000000000000000000008152600401610930906112e6565b60405180910390fd5b6000600354346109499190611269565b90508060026000600160009054906101000a900473ffffffffffffffffffffffffffffffffffffffff1673ffffffffffffffffffffffffffffffffffffffff1673ffffffffffffffffffffffffffffffffffffffff16815260200190815260200160002060008282546109bc919061108b565b9250508190555080600260003373ffffffffffffffffffffffffffffffffffffffff1673ffffffffffffffffffffffffffffffffffffffff1681526020019081526020016000206000828254610a129190611006565b92505081905550600354343373ffffffffffffffffffffffffffffffffffffffff167f5fc4872a04fc9ef9e80a6593db4a82874ea60fbc1f93bd4d0b7a00d4aa8ae55630604051610a639190610e44565b60405180910390a4600191505090565b6000600260003073ffffffffffffffffffffffffffffffffffffffff1673ffffffffffffffffffffffffffffffffffffffff16815260200190815260200160002054905090565b60008173ffffffffffffffffffffffffffffffffffffffff16319050919050565b60026020528060005260406000206000915090505481565b3373ffffffffffffffffffffffffffffffffffffffff1660008054906101000a900473ffffffffffffffffffffffffffffffffffffffff1673ffffffffffffffffffffffffffffffffffffffff1614610b81576040517f08c379a0000000000000000000000000000000000000000000000000000000008152600401610b789061110b565b60405180910390fd5b60008054906101000a900473ffffffffffffffffffffffffffffffffffffffff1673ffffffffffffffffffffffffffffffffffffffff163373ffffffffffffffffffffffffffffffffffffffff1614610c0f576040517f08c379a0000000000000000000000000000000000000000000000000000000008152600401610c0690611177565b60405180910390fd5b60026000600160009054906101000a900473ffffffffffffffffffffffffffffffffffffffff1673ffffffffffffffffffffffffffffffffffffffff1673ffffffffffffffffffffffffffffffffffffffff1681526020019081526020016000206000815480929190610c8190611306565b91905055507f06709393f9862d9beb066b839249efaa58987c6ce0abc919453217dcd857587860026000600160009054906101000a900473ffffffffffffffffffffffffffffffffffffffff1673ffffffffffffffffffffffffffffffffffffffff1673ffffffffffffffffffffffffffffffffffffffff16815260200190815260200160002054604051610d169190610e08565b60405180910390a1565b600080fd5b600073ffffffffffffffffffffffffffffffffffffffff82169050919050565b6000610d5082610d25565b9050919050565b610d6081610d45565b8114610d6b57600080fd5b50565b600081359050610d7d81610d57565b92915050565b6000819050919050565b610d9681610d83565b8114610da157600080fd5b50565b600081359050610db381610d8d565b92915050565b60008060408385031215610dd057610dcf610d20565b5b6000610dde85828601610d6e565b9250506020610def85828601610da4565b9150509250929050565b610e0281610d83565b82525050565b6000602082019050610e1d6000830184610df9565b92915050565b6000610e2e82610d25565b9050919050565b610e3e81610e23565b82525050565b6000602082019050610e596000830184610e35565b92915050565b60008115159050919050565b610e7481610e5f565b82525050565b6000602082019050610e8f6000830184610e6b565b92915050565b610e9e81610e23565b8114610ea957600080fd5b50565b600081359050610ebb81610e95565b92915050565b600060208284031215610ed757610ed6610d20565b5b6000610ee584828501610eac565b91505092915050565b600082825260208201905092915050565b7f4e6f20546f6b656e732068657265000000000000000000000000000000000000600082015250565b6000610f35600e83610eee565b9150610f4082610eff565b602082019050919050565b60006020820190508181036000830152610f6481610f28565b9050919050565b7f4e6f7420456e6f75676820746f6b656e73000000000000000000000000000000600082015250565b6000610fa1601183610eee565b9150610fac82610f6b565b602082019050919050565b60006020820190508181036000830152610fd081610f94565b9050919050565b7f4e487b7100000000000000000000000000000000000000000000000000000000600052601160045260246000fd5b600061101182610d83565b915061101c83610d83565b9250827fffffffffffffffffffffffffffffffffffffffffffffffffffffffffffffffff0382111561105157611050610fd7565b5b828201905092915050565b7f4e487b7100000000000000000000000000000000000000000000000000000000600052600160045260246000fd5b600061109682610d83565b91506110a183610d83565b9250828210156110b4576110b3610fd7565b5b828203905092915050565b7f4e6f74205065726d697474656400000000000000000000000000000000000000600082015250565b60006110f5600d83610eee565b9150611100826110bf565b602082019050919050565b60006020820190508181036000830152611124816110e8565b9050919050565b7f4e6f7420416c6c6f776564206163636573730000000000000000000000000000600082015250565b6000611161601283610eee565b915061116c8261112b565b602082019050919050565b6000602082019050818103600083015261119081611154565b9050919050565b60006111a282610d83565b91507fffffffffffffffffffffffffffffffffffffffffffffffffffffffffffffffff8214156111d5576111d4610fd7565b5b600182019050919050565b60006111eb82610d83565b91506111f683610d83565b9250817fffffffffffffffffffffffffffffffffffffffffffffffffffffffffffffffff048311821515161561122f5761122e610fd7565b5b828202905092915050565b7f4e487b7100000000000000000000000000000000000000000000000000000000600052601260045260246000fd5b600061127482610d83565b915061127f83610d83565b92508261128f5761128e61123a565b5b828204905092915050565b7f4e6f7420656e6f75676820546f6b656e73000000000000000000000000000000600082015250565b60006112d0601183610eee565b91506112db8261129a565b602082019050919050565b600060208201905081810360008301526112ff816112c3565b9050919050565b600061131182610d83565b9150600082141561132557611324610fd7565b5b60018203905091905056fea2646970667358221220ab844a6ed26ce4008baece0b59a2f7372252e0e3a65c3158860507a109edc21f64736f6c634300080a0033",
  "immutableReferences": {},
  "source": "pragma solidity 0.8.10;\n\ncontract ControlRoom {\n// owner = deployer\n// token owner = who own token\n// bankOwner = owner || bankContract == address(this)\n\n    address public owner;\n    address internal bank;\n\n    modifier ForOwners  {\n        require(owner == msg.sender, \"Not Permitted\");\n        _;\n    }\n\n    modifier ForBank  {\n        require(owner == msg.sender || bank == address(this), \"Not Permitted\");\n        _;\n    }\n    \n    constructor() {\n        owner = msg.sender;\n\n    }\n\n}\n\ncontract Bank is ControlRoom {\n\nmapping (address => uint) public tokenBalance;\n\n\n    modifier tokenOwner {\n        require(tokenBalance[msg.sender] > 0, \"No Tokens here\");\n        _;\n    }\n\n    uint tokenPrice = 1 ether;\n\n    event tokenPurchased(address where, address indexed recipient, uint indexed amountGiven, uint indexed tokenSent);\n    event tokenSent(address sender, address indexed recipient, uint indexed amount);\n    event tokenIncrease(uint increase);\n    event tokenDecrease(uint decrease);\n\n// contructor\n    // give ownership to owner...\n    constructor() {\n        bank = address(this);\n        tokenBalance[bank] = 100;\n\n    }\n        \n    function getBankAddress() external view returns (address) {\n        return bank;  \n    }\n\n    function getContactTokenBalance() external view returns (uint) {\n        return tokenBalance[address(this)];\n         \n    }\n    function getContactEtherBalance() external view returns (uint) {\n        return address(this).balance;\n         \n    }\n\n    function getEtherBalance(address search) external view returns (uint) {\n        return search.balance;\n         \n    }\n\n    function getTokenBalance() external view returns (uint) {\n        return tokenBalance[msg.sender];\n    }\n\n        // create token || owner\n    function createToken() external ForOwners {\n        require(msg.sender == owner, \"Not Allowed access\");\n        tokenBalance[bank]++;\n        emit tokenIncrease(tokenBalance[bank]++);\n    }\n    // burn tokens || owner\n    function burnToken() external  ForOwners {\n        require(msg.sender == owner, \"Not Allowed access\");\n        tokenBalance[bank]--;\n        emit tokenDecrease(tokenBalance[bank]);\n    }\n\n    // buy tokens || anyone\n    function purchaseToken() external payable returns (bool success){\n        require(tokenBalance[bank] * tokenPrice / msg.value > 0, \"Not enough Tokens\");\n            uint askValue = msg.value / tokenPrice;\n\n            tokenBalance[bank] -= askValue;\n            tokenBalance[msg.sender] += askValue;\n            emit tokenPurchased(address(this), msg.sender, msg.value, tokenPrice);\n            return true;\n\n    }\n    // send tokens || token holder\n    function sendTokens(address payable to, uint amount) external tokenOwner {\n        require(tokenBalance[msg.sender] >= amount, \"Not Enough tokens\");\n        assert(tokenBalance[to] + amount >= tokenBalance[to]);\n        assert(tokenBalance[msg.sender] - amount <= tokenBalance[msg.sender]);\n\n        tokenBalance[msg.sender] -= amount;\n        tokenBalance[to] += amount;\n\n        emit tokenSent(msg.sender, to, amount);\n    }\n\n// Owner will have still have ownership of contract...just wont hold token supply\n\n}\n\ncontract BankTeller is Bank {\n\n    function getRewardBalance() external view returns(uint) { \n        // will show what has been sent to contract\n        return bank.balance;\n    }\n\n    function claimReward(address payable to) external ForOwners { \n        // Withdraws all fund to address (only owner or allowed address)\n        uint balanceToSend = bank.balance;\n        to.transfer(balanceToSend);\n    }\n\n}",
  "sourcePath": "/Users/victorogbebor/Documents/DevStuff/Solidity/BankDapp/contracts/BlockchainBicBankingContract.sol",
  "compiler": {
    "name": "solc",
    "version": "0.8.10+commit.fc410830.Emscripten.clang"
  },
  "schemaVersion": "3.4.3",
  "updatedAt": "2022-04-01T04:11:01.418Z",
  "devdoc": {
    "kind": "dev",
    "methods": {},
    "version": 1
  },
  "userdoc": {
    "kind": "user",
    "methods": {},
    "version": 1
  }
}