{
  "contractName": "BankTeller",
  "abi": [
    {
      "anonymous": false,
      "inputs": [
        {
          "indexed": false,
          "internalType": "uint256",
          "name": "decrease",
          "type": "uint256"
        }
      ],
      "name": "tokenDecrease",
      "type": "event"
    },
    {
      "anonymous": false,
      "inputs": [
        {
          "indexed": false,
          "internalType": "uint256",
          "name": "increase",
          "type": "uint256"
        }
      ],
      "name": "tokenIncrease",
      "type": "event"
    },
    {
      "anonymous": false,
      "inputs": [
        {
          "indexed": false,
          "internalType": "address",
          "name": "where",
          "type": "address"
        },
        {
          "indexed": true,
          "internalType": "address",
          "name": "recipient",
          "type": "address"
        },
        {
          "indexed": true,
          "internalType": "uint256",
          "name": "amountGiven",
          "type": "uint256"
        },
        {
          "indexed": true,
          "internalType": "uint256",
          "name": "tokenSent",
          "type": "uint256"
        }
      ],
      "name": "tokenPurchased",
      "type": "event"
    },
    {
      "anonymous": false,
      "inputs": [
        {
          "indexed": false,
          "internalType": "address",
          "name": "sender",
          "type": "address"
        },
        {
          "indexed": true,
          "internalType": "address",
          "name": "recipient",
          "type": "address"
        },
        {
          "indexed": true,
          "internalType": "uint256",
          "name": "amount",
          "type": "uint256"
        }
      ],
      "name": "tokenSent",
      "type": "event"
    },
    {
      "inputs": [],
      "name": "burnToken",
      "outputs": [],
      "stateMutability": "nonpayable",
      "type": "function"
    },
    {
      "inputs": [],
      "name": "createToken",
      "outputs": [],
      "stateMutability": "nonpayable",
      "type": "function"
    },
    {
      "inputs": [],
      "name": "getBankAddress",
      "outputs": [
        {
          "internalType": "address",
          "name": "",
          "type": "address"
        }
      ],
      "stateMutability": "view",
      "type": "function"
    },
    {
      "inputs": [],
      "name": "getContactEtherBalance",
      "outputs": [
        {
          "internalType": "uint256",
          "name": "",
          "type": "uint256"
        }
      ],
      "stateMutability": "view",
      "type": "function"
    },
    {
      "inputs": [],
      "name": "getContactTokenBalance",
      "outputs": [
        {
          "internalType": "uint256",
          "name": "",
          "type": "uint256"
        }
      ],
      "stateMutability": "view",
      "type": "function"
    },
    {
      "inputs": [
        {
          "internalType": "address",
          "name": "search",
          "type": "address"
        }
      ],
      "name": "getEtherBalance",
      "outputs": [
        {
          "internalType": "uint256",
          "name": "",
          "type": "uint256"
        }
      ],
      "stateMutability": "view",
      "type": "function"
    },
    {
      "inputs": [],
      "name": "getTokenBalance",
      "outputs": [
        {
          "internalType": "uint256",
          "name": "",
          "type": "uint256"
        }
      ],
      "stateMutability": "view",
      "type": "function"
    },
    {
      "inputs": [],
      "name": "owner",
      "outputs": [
        {
          "internalType": "address",
          "name": "",
          "type": "address"
        }
      ],
      "stateMutability": "view",
      "type": "function"
    },
    {
      "inputs": [],
      "name": "purchaseToken",
      "outputs": [
        {
          "internalType": "bool",
          "name": "success",
          "type": "bool"
        }
      ],
      "stateMutability": "payable",
      "type": "function"
    },
    {
      "inputs": [
        {
          "internalType": "address payable",
          "name": "to",
          "type": "address"
        },
        {
          "internalType": "uint256",
          "name": "amount",
          "type": "uint256"
        }
      ],
      "name": "sendTokens",
      "outputs": [],
      "stateMutability": "nonpayable",
      "type": "function"
    },
    {
      "inputs": [
        {
          "internalType": "address",
          "name": "",
          "type": "address"
        }
      ],
      "name": "tokenBalance",
      "outputs": [
        {
          "internalType": "uint256",
          "name": "",
          "type": "uint256"
        }
      ],
      "stateMutability": "view",
      "type": "function"
    },
    {
      "inputs": [],
      "name": "getRewardBalance",
      "outputs": [
        {
          "internalType": "uint256",
          "name": "",
          "type": "uint256"
        }
      ],
      "stateMutability": "view",
      "type": "function"
    },
    {
      "inputs": [
        {
          "internalType": "address payable",
          "name": "to",
          "type": "address"
        }
      ],
      "name": "claimReward",
      "outputs": [],
      "stateMutability": "nonpayable",
      "type": "function"
    }
  ],
  "bytecode": "0x6080604052670de0b6b3a764000060035534801561001c57600080fd5b50336000806101000a81548173ffffffffffffffffffffffffffffffffffffffff021916908373ffffffffffffffffffffffffffffffffffffffff16021790555030600160006101000a81548173ffffffffffffffffffffffffffffffffffffffff021916908373ffffffffffffffffffffffffffffffffffffffff160217905550606460026000600160009054906101000a900473ffffffffffffffffffffffffffffffffffffffff1673ffffffffffffffffffffffffffffffffffffffff1673ffffffffffffffffffffffffffffffffffffffff16815260200190815260200160002081905550611565806101146000396000f3fe6080604052600436106100c25760003560e01c80639cbf9e361161007f578063d279c19111610059578063d279c19114610227578063dc45d08e14610250578063eedc966a1461028d578063faa0a264146102ca576100c2565b80639cbf9e36146101c7578063a95c4d62146101de578063ad4f450c146101fc576100c2565b806305ab421d146100c7578063246a491e146100f05780635e42b4551461011b57806366f780e91461014657806382b2e257146101715780638da5cb5b1461019c575b600080fd5b3480156100d357600080fd5b506100ee60048036038101906100e99190610f8b565b6102e1565b005b3480156100fc57600080fd5b50610105610618565b6040516101129190610fda565b60405180910390f35b34801561012757600080fd5b50610130610620565b60405161013d9190610fda565b60405180910390f35b34801561015257600080fd5b5061015b610661565b6040516101689190611016565b60405180910390f35b34801561017d57600080fd5b5061018661068b565b6040516101939190610fda565b60405180910390f35b3480156101a857600080fd5b506101b16106d2565b6040516101be9190611016565b60405180910390f35b3480156101d357600080fd5b506101dc6106f6565b005b6101e6610937565b6040516101f3919061104c565b60405180910390f35b34801561020857600080fd5b50610211610b2e565b60405161021e9190610fda565b60405180910390f35b34801561023357600080fd5b5061024e60048036038101906102499190611067565b610b75565b005b34801561025c57600080fd5b50610277600480360381019061027291906110c0565b610c8c565b6040516102849190610fda565b60405180910390f35b34801561029957600080fd5b506102b460048036038101906102af91906110c0565b610cad565b6040516102c19190610fda565b60405180910390f35b3480156102d657600080fd5b506102df610cc5565b005b6000600260003373ffffffffffffffffffffffffffffffffffffffff1673ffffffffffffffffffffffffffffffffffffffff1681526020019081526020016000205411610363576040517f08c379a000000000000000000000000000000000000000000000000000000000815260040161035a9061114a565b60405180910390fd5b80600260003373ffffffffffffffffffffffffffffffffffffffff1673ffffffffffffffffffffffffffffffffffffffff1681526020019081526020016000205410156103e5576040517f08c379a00000000000000000000000000000000000000000000000000000000081526004016103dc906111b6565b60405180910390fd5b600260008373ffffffffffffffffffffffffffffffffffffffff1673ffffffffffffffffffffffffffffffffffffffff1681526020019081526020016000205481600260008573ffffffffffffffffffffffffffffffffffffffff1673ffffffffffffffffffffffffffffffffffffffff168152602001908152602001600020546104709190611205565b101561047f5761047e61125b565b5b600260003373ffffffffffffffffffffffffffffffffffffffff1673ffffffffffffffffffffffffffffffffffffffff1681526020019081526020016000205481600260003373ffffffffffffffffffffffffffffffffffffffff1673ffffffffffffffffffffffffffffffffffffffff1681526020019081526020016000205461050a919061128a565b11156105195761051861125b565b5b80600260003373ffffffffffffffffffffffffffffffffffffffff1673ffffffffffffffffffffffffffffffffffffffff1681526020019081526020016000206000828254610568919061128a565b9250508190555080600260008473ffffffffffffffffffffffffffffffffffffffff1673ffffffffffffffffffffffffffffffffffffffff16815260200190815260200160002060008282546105be9190611205565b92505081905550808273ffffffffffffffffffffffffffffffffffffffff167f16a1605b4e6210f29341360b5a5b4627b7ccf2bbb184f1d0c2ebe1a07ad4a3153360405161060c9190611016565b60405180910390a35050565b600047905090565b6000600160009054906101000a900473ffffffffffffffffffffffffffffffffffffffff1673ffffffffffffffffffffffffffffffffffffffff1631905090565b6000600160009054906101000a900473ffffffffffffffffffffffffffffffffffffffff16905090565b6000600260003373ffffffffffffffffffffffffffffffffffffffff1673ffffffffffffffffffffffffffffffffffffffff16815260200190815260200160002054905090565b60008054906101000a900473ffffffffffffffffffffffffffffffffffffffff1681565b3373ffffffffffffffffffffffffffffffffffffffff1660008054906101000a900473ffffffffffffffffffffffffffffffffffffffff1673ffffffffffffffffffffffffffffffffffffffff1614610784576040517f08c379a000000000000000000000000000000000000000000000000000000000815260040161077b9061130a565b60405180910390fd5b60008054906101000a900473ffffffffffffffffffffffffffffffffffffffff1673ffffffffffffffffffffffffffffffffffffffff163373ffffffffffffffffffffffffffffffffffffffff1614610812576040517f08c379a000000000000000000000000000000000000000000000000000000000815260040161080990611376565b60405180910390fd5b60026000600160009054906101000a900473ffffffffffffffffffffffffffffffffffffffff1673ffffffffffffffffffffffffffffffffffffffff1673ffffffffffffffffffffffffffffffffffffffff168152602001908152602001600020600081548092919061088490611396565b91905055507fd96782df2555b101653cfc9ede79422cc8c7f1bc48aadf0cb6477283a28f645a60026000600160009054906101000a900473ffffffffffffffffffffffffffffffffffffffff1673ffffffffffffffffffffffffffffffffffffffff1673ffffffffffffffffffffffffffffffffffffffff168152602001908152602001600020600081548092919061091c90611396565b9190505560405161092d9190610fda565b60405180910390a1565b6000803460035460026000600160009054906101000a900473ffffffffffffffffffffffffffffffffffffffff1673ffffffffffffffffffffffffffffffffffffffff1673ffffffffffffffffffffffffffffffffffffffff168152602001908152602001600020546109aa91906113df565b6109b49190611468565b116109f4576040517f08c379a00000000000000000000000000000000000000000000000000000000081526004016109eb906114e5565b60405180910390fd5b600060035434610a049190611468565b90508060026000600160009054906101000a900473ffffffffffffffffffffffffffffffffffffffff1673ffffffffffffffffffffffffffffffffffffffff1673ffffffffffffffffffffffffffffffffffffffff1681526020019081526020016000206000828254610a77919061128a565b9250508190555080600260003373ffffffffffffffffffffffffffffffffffffffff1673ffffffffffffffffffffffffffffffffffffffff1681526020019081526020016000206000828254610acd9190611205565b92505081905550600354343373ffffffffffffffffffffffffffffffffffffffff167f5fc4872a04fc9ef9e80a6593db4a82874ea60fbc1f93bd4d0b7a00d4aa8ae55630604051610b1e9190611016565b60405180910390a4600191505090565b6000600260003073ffffffffffffffffffffffffffffffffffffffff1673ffffffffffffffffffffffffffffffffffffffff16815260200190815260200160002054905090565b3373ffffffffffffffffffffffffffffffffffffffff1660008054906101000a900473ffffffffffffffffffffffffffffffffffffffff1673ffffffffffffffffffffffffffffffffffffffff1614610c03576040517f08c379a0000000000000000000000000000000000000000000000000000000008152600401610bfa9061130a565b60405180910390fd5b6000600160009054906101000a900473ffffffffffffffffffffffffffffffffffffffff1673ffffffffffffffffffffffffffffffffffffffff163190508173ffffffffffffffffffffffffffffffffffffffff166108fc829081150290604051600060405180830381858888f19350505050158015610c87573d6000803e3d6000fd5b505050565b60008173ffffffffffffffffffffffffffffffffffffffff16319050919050565b60026020528060005260406000206000915090505481565b3373ffffffffffffffffffffffffffffffffffffffff1660008054906101000a900473ffffffffffffffffffffffffffffffffffffffff1673ffffffffffffffffffffffffffffffffffffffff1614610d53576040517f08c379a0000000000000000000000000000000000000000000000000000000008152600401610d4a9061130a565b60405180910390fd5b60008054906101000a900473ffffffffffffffffffffffffffffffffffffffff1673ffffffffffffffffffffffffffffffffffffffff163373ffffffffffffffffffffffffffffffffffffffff1614610de1576040517f08c379a0000000000000000000000000000000000000000000000000000000008152600401610dd890611376565b60405180910390fd5b60026000600160009054906101000a900473ffffffffffffffffffffffffffffffffffffffff1673ffffffffffffffffffffffffffffffffffffffff1673ffffffffffffffffffffffffffffffffffffffff1681526020019081526020016000206000815480929190610e5390611505565b91905055507f06709393f9862d9beb066b839249efaa58987c6ce0abc919453217dcd857587860026000600160009054906101000a900473ffffffffffffffffffffffffffffffffffffffff1673ffffffffffffffffffffffffffffffffffffffff1673ffffffffffffffffffffffffffffffffffffffff16815260200190815260200160002054604051610ee89190610fda565b60405180910390a1565b600080fd5b600073ffffffffffffffffffffffffffffffffffffffff82169050919050565b6000610f2282610ef7565b9050919050565b610f3281610f17565b8114610f3d57600080fd5b50565b600081359050610f4f81610f29565b92915050565b6000819050919050565b610f6881610f55565b8114610f7357600080fd5b50565b600081359050610f8581610f5f565b92915050565b60008060408385031215610fa257610fa1610ef2565b5b6000610fb085828601610f40565b9250506020610fc185828601610f76565b9150509250929050565b610fd481610f55565b82525050565b6000602082019050610fef6000830184610fcb565b92915050565b600061100082610ef7565b9050919050565b61101081610ff5565b82525050565b600060208201905061102b6000830184611007565b92915050565b60008115159050919050565b61104681611031565b82525050565b6000602082019050611061600083018461103d565b92915050565b60006020828403121561107d5761107c610ef2565b5b600061108b84828501610f40565b91505092915050565b61109d81610ff5565b81146110a857600080fd5b50565b6000813590506110ba81611094565b92915050565b6000602082840312156110d6576110d5610ef2565b5b60006110e4848285016110ab565b91505092915050565b600082825260208201905092915050565b7f4e6f20546f6b656e732068657265000000000000000000000000000000000000600082015250565b6000611134600e836110ed565b915061113f826110fe565b602082019050919050565b6000602082019050818103600083015261116381611127565b9050919050565b7f4e6f7420456e6f75676820746f6b656e73000000000000000000000000000000600082015250565b60006111a06011836110ed565b91506111ab8261116a565b602082019050919050565b600060208201905081810360008301526111cf81611193565b9050919050565b7f4e487b7100000000000000000000000000000000000000000000000000000000600052601160045260246000fd5b600061121082610f55565b915061121b83610f55565b9250827fffffffffffffffffffffffffffffffffffffffffffffffffffffffffffffffff038211156112505761124f6111d6565b5b828201905092915050565b7f4e487b7100000000000000000000000000000000000000000000000000000000600052600160045260246000fd5b600061129582610f55565b91506112a083610f55565b9250828210156112b3576112b26111d6565b5b828203905092915050565b7f4e6f74205065726d697474656400000000000000000000000000000000000000600082015250565b60006112f4600d836110ed565b91506112ff826112be565b602082019050919050565b60006020820190508181036000830152611323816112e7565b9050919050565b7f4e6f7420416c6c6f776564206163636573730000000000000000000000000000600082015250565b60006113606012836110ed565b915061136b8261132a565b602082019050919050565b6000602082019050818103600083015261138f81611353565b9050919050565b60006113a182610f55565b91507fffffffffffffffffffffffffffffffffffffffffffffffffffffffffffffffff8214156113d4576113d36111d6565b5b600182019050919050565b60006113ea82610f55565b91506113f583610f55565b9250817fffffffffffffffffffffffffffffffffffffffffffffffffffffffffffffffff048311821515161561142e5761142d6111d6565b5b828202905092915050565b7f4e487b7100000000000000000000000000000000000000000000000000000000600052601260045260246000fd5b600061147382610f55565b915061147e83610f55565b92508261148e5761148d611439565b5b828204905092915050565b7f4e6f7420656e6f75676820546f6b656e73000000000000000000000000000000600082015250565b60006114cf6011836110ed565b91506114da82611499565b602082019050919050565b600060208201905081810360008301526114fe816114c2565b9050919050565b600061151082610f55565b91506000821415611524576115236111d6565b5b60018203905091905056fea26469706673582212204c8850d78f206f39aa80a6ebf32fb943c50496443f0d3f15670aecbba29c7f7664736f6c634300080a0033",
  "immutableReferences": {},
  "source": "pragma solidity 0.8.10;\n\ncontract ControlRoom {\n// owner = deployer\n// token owner = who own token\n// bankOwner = owner || bankContract == address(this)\n\n    address public owner;\n    address internal bank;\n\n    modifier ForOwners  {\n        require(owner == msg.sender, \"Not Permitted\");\n        _;\n    }\n\n    modifier ForBank  {\n        require(owner == msg.sender || bank == address(this), \"Not Permitted\");\n        _;\n    }\n    \n    constructor() {\n        owner = msg.sender;\n\n    }\n\n}\n\ncontract Bank is ControlRoom {\n\nmapping (address => uint) public tokenBalance;\n\n\n    modifier tokenOwner {\n        require(tokenBalance[msg.sender] > 0, \"No Tokens here\");\n        _;\n    }\n\n    uint tokenPrice = 1 ether;\n\n    event tokenPurchased(address where, address indexed recipient, uint indexed amountGiven, uint indexed tokenSent);\n    event tokenSent(address sender, address indexed recipient, uint indexed amount);\n    event tokenIncrease(uint increase);\n    event tokenDecrease(uint decrease);\n\n// contructor\n    // give ownership to owner...\n    constructor() {\n        bank = address(this);\n        tokenBalance[bank] = 100;\n\n    }\n        \n    function getBankAddress() external view returns (address) {\n        return bank;  \n    }\n\n    function getContactTokenBalance() external view returns (uint) {\n        return tokenBalance[address(this)];\n         \n    }\n    function getContactEtherBalance() external view returns (uint) {\n        return address(this).balance;\n         \n    }\n\n    function getEtherBalance(address search) external view returns (uint) {\n        return search.balance;\n         \n    }\n\n    function getTokenBalance() external view returns (uint) {\n        return tokenBalance[msg.sender];\n    }\n\n        // create token || owner\n    function createToken() external ForOwners {\n        require(msg.sender == owner, \"Not Allowed access\");\n        tokenBalance[bank]++;\n        emit tokenIncrease(tokenBalance[bank]++);\n    }\n    // burn tokens || owner\n    function burnToken() external  ForOwners {\n        require(msg.sender == owner, \"Not Allowed access\");\n        tokenBalance[bank]--;\n        emit tokenDecrease(tokenBalance[bank]);\n    }\n\n    // buy tokens || anyone\n    function purchaseToken() external payable returns (bool success){\n        require(tokenBalance[bank] * tokenPrice / msg.value > 0, \"Not enough Tokens\");\n            uint askValue = msg.value / tokenPrice;\n\n            tokenBalance[bank] -= askValue;\n            tokenBalance[msg.sender] += askValue;\n            emit tokenPurchased(address(this), msg.sender, msg.value, tokenPrice);\n            return true;\n\n    }\n    // send tokens || token holder\n    function sendTokens(address payable to, uint amount) external tokenOwner {\n        require(tokenBalance[msg.sender] >= amount, \"Not Enough tokens\");\n        assert(tokenBalance[to] + amount >= tokenBalance[to]);\n        assert(tokenBalance[msg.sender] - amount <= tokenBalance[msg.sender]);\n\n        tokenBalance[msg.sender] -= amount;\n        tokenBalance[to] += amount;\n\n        emit tokenSent(msg.sender, to, amount);\n    }\n\n// Owner will have still have ownership of contract...just wont hold token supply\n\n}\n\ncontract BankTeller is Bank {\n\n    function getRewardBalance() external view returns(uint) { \n        // will show what has been sent to contract\n        return bank.balance;\n    }\n\n    function claimReward(address payable to) external ForOwners { \n        // Withdraws all fund to address (only owner or allowed address)\n        uint balanceToSend = bank.balance;\n        to.transfer(balanceToSend);\n    }\n\n}",
  "sourcePath": "/Users/victorogbebor/Documents/DevStuff/Solidity/BankDapp/contracts/BlockchainBicBankingContract.sol",
  "compiler": {
    "name": "solc",
    "version": "0.8.10+commit.fc410830.Emscripten.clang"
  },
  "schemaVersion": "3.4.3",
  "updatedAt": "2022-04-01T04:11:01.423Z",
  "devdoc": {
    "kind": "dev",
    "methods": {},
    "version": 1
  },
  "userdoc": {
    "kind": "user",
    "methods": {},
    "version": 1
  }
}