{
  "contractName": "ButtonGame",
  "abi": [
    {
      "anonymous": false,
      "inputs": [
        {
          "indexed": false,
          "internalType": "address",
          "name": "WinningSmasher",
          "type": "address"
        },
        {
          "indexed": false,
          "internalType": "uint256",
          "name": "amount",
          "type": "uint256"
        },
        {
          "indexed": false,
          "internalType": "uint256",
          "name": "time",
          "type": "uint256"
        }
      ],
      "name": "ButtonWinner",
      "type": "event"
    },
    {
      "anonymous": false,
      "inputs": [
        {
          "indexed": false,
          "internalType": "address",
          "name": "Smasher",
          "type": "address"
        },
        {
          "indexed": false,
          "internalType": "uint256",
          "name": "time",
          "type": "uint256"
        }
      ],
      "name": "lastButtonSmash",
      "type": "event"
    },
    {
      "inputs": [
        {
          "internalType": "address",
          "name": "",
          "type": "address"
        }
      ],
      "name": "buttonDeposit",
      "outputs": [
        {
          "internalType": "uint256",
          "name": "",
          "type": "uint256"
        }
      ],
      "stateMutability": "view",
      "type": "function"
    },
    {
      "inputs": [],
      "name": "gameEndTime",
      "outputs": [
        {
          "internalType": "uint256",
          "name": "",
          "type": "uint256"
        }
      ],
      "stateMutability": "view",
      "type": "function"
    },
    {
      "inputs": [],
      "name": "getLastDepositAddress",
      "outputs": [
        {
          "internalType": "address",
          "name": "",
          "type": "address"
        }
      ],
      "stateMutability": "view",
      "type": "function"
    },
    {
      "inputs": [],
      "name": "getPrizeBalance",
      "outputs": [
        {
          "internalType": "uint256",
          "name": "",
          "type": "uint256"
        }
      ],
      "stateMutability": "view",
      "type": "function"
    },
    {
      "inputs": [],
      "name": "theButton",
      "outputs": [],
      "stateMutability": "payable",
      "type": "function"
    },
    {
      "inputs": [],
      "name": "endTime",
      "outputs": [],
      "stateMutability": "nonpayable",
      "type": "function"
    },
    {
      "inputs": [
        {
          "internalType": "uint256",
          "name": "amount",
          "type": "uint256"
        }
      ],
      "name": "claimTreasure",
      "outputs": [],
      "stateMutability": "nonpayable",
      "type": "function"
    }
  ],
  "bytecode": "0x60806040526003426100119190610097565b60025560065434610022919061011c565b6004556000600560006101000a81548160ff021916908315150217905550670de0b6b3a764000060065534801561005857600080fd5b5061014d565b6000819050919050565b7f4e487b7100000000000000000000000000000000000000000000000000000000600052601160045260246000fd5b60006100a28261005e565b91506100ad8361005e565b9250827fffffffffffffffffffffffffffffffffffffffffffffffffffffffffffffffff038211156100e2576100e1610068565b5b828201905092915050565b7f4e487b7100000000000000000000000000000000000000000000000000000000600052601260045260246000fd5b60006101278261005e565b91506101328361005e565b925082610142576101416100ed565b5b828204905092915050565b61081f8061015c6000396000f3fe6080604052600436106100705760003560e01c806344d9bc5f1161004e57806344d9bc5f146100bf578063b5b3dab0146100ea578063e10e841f14610115578063f621944c1461015257610070565b806301f217b6146100755780631716a5511461009e5780633197cbb6146100a8575b600080fd5b34801561008157600080fd5b5061009c60048036038101906100979190610546565b61017d565b005b6100a66103b8565b005b3480156100b457600080fd5b506100bd6104b9565b005b3480156100cb57600080fd5b506100d46104bb565b6040516100e19190610582565b60405180910390f35b3480156100f657600080fd5b506100ff6104c1565b60405161010c91906105de565b60405180910390f35b34801561012157600080fd5b5061013c60048036038101906101379190610625565b6104eb565b6040516101499190610582565b60405180910390f35b34801561015e57600080fd5b50610167610503565b6040516101749190610582565b60405180910390f35b600360009054906101000a900473ffffffffffffffffffffffffffffffffffffffff1673ffffffffffffffffffffffffffffffffffffffff1660008054906101000a900473ffffffffffffffffffffffffffffffffffffffff1673ffffffffffffffffffffffffffffffffffffffff161461022d576040517f08c379a0000000000000000000000000000000000000000000000000000000008152600401610224906106af565b60405180910390fd5b600160009054906101000a900473ffffffffffffffffffffffffffffffffffffffff1673ffffffffffffffffffffffffffffffffffffffff163373ffffffffffffffffffffffffffffffffffffffff16146102bd576040517f08c379a00000000000000000000000000000000000000000000000000000000081526004016102b4906106af565b60405180910390fd5b60008054906101000a900473ffffffffffffffffffffffffffffffffffffffff1673ffffffffffffffffffffffffffffffffffffffff163373ffffffffffffffffffffffffffffffffffffffff161461034b576040517f08c379a00000000000000000000000000000000000000000000000000000000081526004016103429061071b565b60405180910390fd5b47905060008054906101000a900473ffffffffffffffffffffffffffffffffffffffff1673ffffffffffffffffffffffffffffffffffffffff166108fc829081150290604051600060405180830381858888f193505050501580156103b4573d6000803e3d6000fd5b5050565b60006004541461043d5760045460076000600360009054906101000a900473ffffffffffffffffffffffffffffffffffffffff1673ffffffffffffffffffffffffffffffffffffffff1673ffffffffffffffffffffffffffffffffffffffff1681526020019081526020016000206000828254610435919061076a565b925050819055505b33600360006101000a81548173ffffffffffffffffffffffffffffffffffffffff021916908373ffffffffffffffffffffffffffffffffffffffff1602179055507f9f1be4c5a772505f98d6e6b095dd03ad93707edf39a43ebbf0df2cbc3a8e943933426040516104af9291906107c0565b60405180910390a1565b565b60025481565b6000600360009054906101000a900473ffffffffffffffffffffffffffffffffffffffff16905090565b60076020528060005260406000206000915090505481565b600047905090565b600080fd5b6000819050919050565b61052381610510565b811461052e57600080fd5b50565b6000813590506105408161051a565b92915050565b60006020828403121561055c5761055b61050b565b5b600061056a84828501610531565b91505092915050565b61057c81610510565b82525050565b60006020820190506105976000830184610573565b92915050565b600073ffffffffffffffffffffffffffffffffffffffff82169050919050565b60006105c88261059d565b9050919050565b6105d8816105bd565b82525050565b60006020820190506105f360008301846105cf565b92915050565b610602816105bd565b811461060d57600080fd5b50565b60008135905061061f816105f9565b92915050565b60006020828403121561063b5761063a61050b565b5b600061064984828501610610565b91505092915050565b600082825260208201905092915050565b7f4e6f742057696e6e657200000000000000000000000000000000000000000000600082015250565b6000610699600a83610652565b91506106a482610663565b602082019050919050565b600060208201905081810360008301526106c88161068c565b9050919050565b7f6e6f74207468652077696e6e6572000000000000000000000000000000000000600082015250565b6000610705600e83610652565b9150610710826106cf565b602082019050919050565b60006020820190508181036000830152610734816106f8565b9050919050565b7f4e487b7100000000000000000000000000000000000000000000000000000000600052601160045260246000fd5b600061077582610510565b915061078083610510565b9250827fffffffffffffffffffffffffffffffffffffffffffffffffffffffffffffffff038211156107b5576107b461073b565b5b828201905092915050565b60006040820190506107d560008301856105cf565b6107e26020830184610573565b939250505056fea2646970667358221220a111df439fe7003d3893765211b2789d26ff168f31676dc81cbd20d7f524de9d64736f6c634300080a0033",
  "immutableReferences": {},
  "source": "pragma solidity 0.8.10;\n\ncontract ButtonGame {\n\n    address payable winner;\n    address owner;\n    uint public gameEndTime = block.timestamp + 3;\n\n    // Current State\n    address lastButtonHitter;\n    uint lastDeposit = msg.value / tokenPrice;\n\n    bool ended = false;\n    uint tokenPrice = 1 ether;\n    mapping (address => uint) public buttonDeposit;\n\n    event lastButtonSmash(address Smasher, uint time);\n    event ButtonWinner(address WinningSmasher, uint amount, uint time);\n    \n    modifier ownerOnly() {\n        require(msg.sender == owner, \"Not Winner\");\n        _;\n    }\n    modifier winnerOnly() {\n        // require time to end\n        require(winner == lastButtonHitter, \"Not Winner\");\n        _;\n    }\n\n    function getLastDepositAddress() external view returns (address) {\n        return lastButtonHitter;\n    }\n\n    function getPrizeBalance() external view returns (uint) {\n        return address(this).balance;\n    }\n\n    function theButton() external payable {\n        // // when depoit start timer\n        // if(block.timestamp > gameEndTime) {\n        //     revert(\"NO Its over\");\n        // }\n\n        if (lastDeposit != 0) {\n            buttonDeposit[lastButtonHitter] += lastDeposit;\n        }\n\n        lastButtonHitter = msg.sender;\n        emit lastButtonSmash(msg.sender, block.timestamp);\n    }\n\n    function endTime() external {\n\n    }\n\n    // withdraw function that will only withdraw to last depositer\n    function claimTreasure(uint amount) external winnerOnly ownerOnly {\n        require(msg.sender == winner, \"not the winner\");\n        amount = address(this).balance;\n        winner.transfer(amount);\n    }\n\n    //* Build in Progress *\n}",
  "sourcePath": "/Users/victorogbebor/Documents/DevStuff/Solidity/BankDapp/contracts/BicAndTheButton.sol",
  "compiler": {
    "name": "solc",
    "version": "0.8.10+commit.fc410830.Emscripten.clang"
  },
  "schemaVersion": "3.4.3",
  "updatedAt": "2022-04-01T04:06:25.202Z",
  "devdoc": {
    "kind": "dev",
    "methods": {},
    "version": 1
  },
  "userdoc": {
    "kind": "user",
    "methods": {},
    "version": 1
  }
}