{
  "contractName": "ControlRoom",
  "abi": [
    {
      "inputs": [],
      "stateMutability": "nonpayable",
      "type": "constructor"
    },
    {
      "inputs": [],
      "name": "owner",
      "outputs": [
        {
          "internalType": "address",
          "name": "",
          "type": "address"
        }
      ],
      "stateMutability": "view",
      "type": "function"
    }
  ],
  "bytecode": "0x608060405234801561001057600080fd5b50336000806101000a81548173ffffffffffffffffffffffffffffffffffffffff021916908373ffffffffffffffffffffffffffffffffffffffff16021790555060f78061005f6000396000f3fe6080604052348015600f57600080fd5b506004361060285760003560e01c80638da5cb5b14602d575b600080fd5b60336047565b604051603e919060a8565b60405180910390f35b60008054906101000a900473ffffffffffffffffffffffffffffffffffffffff1681565b600073ffffffffffffffffffffffffffffffffffffffff82169050919050565b6000609482606b565b9050919050565b60a281608b565b82525050565b600060208201905060bb6000830184609b565b9291505056fea26469706673582212208f1fc91c26f3b79506f92e70ed2a9c05b1849abf6a489f78d7b6224f4fdce2b264736f6c634300080a0033",
  "immutableReferences": {},
  "source": "pragma solidity 0.8.10;\n\ncontract ControlRoom {\n// owner = deployer\n// token owner = who own token\n// bankOwner = owner || bankContract == address(this)\n\n    address public owner;\n    address internal bank;\n\n    modifier ForOwners  {\n        require(owner == msg.sender, \"Not Permitted\");\n        _;\n    }\n\n    modifier ForBank  {\n        require(owner == msg.sender || bank == address(this), \"Not Permitted\");\n        _;\n    }\n    \n    constructor() {\n        owner = msg.sender;\n\n    }\n\n}\n\ncontract Bank is ControlRoom {\n\nmapping (address => uint) public tokenBalance;\n\n\n    modifier tokenOwner {\n        require(tokenBalance[msg.sender] > 0, \"No Tokens here\");\n        _;\n    }\n\n    uint tokenPrice = 1 ether;\n\n    event tokenPurchased(address where, address indexed recipient, uint indexed amountGiven, uint indexed tokenSent);\n    event tokenSent(address sender, address indexed recipient, uint indexed amount);\n    event tokenIncrease(uint increase);\n    event tokenDecrease(uint decrease);\n\n// contructor\n    // give ownership to owner...\n    constructor() {\n        bank = address(this);\n        tokenBalance[bank] = 100;\n\n    }\n        \n    function getBankAddress() external view returns (address) {\n        return bank;  \n    }\n\n    function getContactTokenBalance() external view returns (uint) {\n        return tokenBalance[address(this)];\n         \n    }\n    function getContactEtherBalance() external view returns (uint) {\n        return address(this).balance;\n         \n    }\n\n    function getEtherBalance(address search) external view returns (uint) {\n        return search.balance;\n         \n    }\n\n    function getTokenBalance() external view returns (uint) {\n        return tokenBalance[msg.sender];\n    }\n\n        // create token || owner\n    function createToken() external ForOwners {\n        require(msg.sender == owner, \"Not Allowed access\");\n        tokenBalance[bank]++;\n        emit tokenIncrease(tokenBalance[bank]++);\n    }\n    // burn tokens || owner\n    function burnToken() external  ForOwners {\n        require(msg.sender == owner, \"Not Allowed access\");\n        tokenBalance[bank]--;\n        emit tokenDecrease(tokenBalance[bank]);\n    }\n\n    // buy tokens || anyone\n    function purchaseToken() external payable returns (bool success){\n        require(tokenBalance[bank] * tokenPrice / msg.value > 0, \"Not enough Tokens\");\n            uint askValue = msg.value / tokenPrice;\n\n            tokenBalance[bank] -= askValue;\n            tokenBalance[msg.sender] += askValue;\n            emit tokenPurchased(address(this), msg.sender, msg.value, tokenPrice);\n            return true;\n\n    }\n    // send tokens || token holder\n    function sendTokens(address payable to, uint amount) external tokenOwner {\n        require(tokenBalance[msg.sender] >= amount, \"Not Enough tokens\");\n        assert(tokenBalance[to] + amount >= tokenBalance[to]);\n        assert(tokenBalance[msg.sender] - amount <= tokenBalance[msg.sender]);\n\n        tokenBalance[msg.sender] -= amount;\n        tokenBalance[to] += amount;\n\n        emit tokenSent(msg.sender, to, amount);\n    }\n\n// Owner will have still have ownership of contract...just wont hold token supply\n\n}\n\ncontract BankTeller is Bank {\n\n    function getRewardBalance() external view returns(uint) { \n        // will show what has been sent to contract\n        return bank.balance;\n    }\n\n    function claimReward(address payable to) external ForOwners { \n        // Withdraws all fund to address (only owner or allowed address)\n        uint balanceToSend = bank.balance;\n        to.transfer(balanceToSend);\n    }\n\n}",
  "sourcePath": "/Users/victorogbebor/Documents/DevStuff/Solidity/BankDapp/contracts/BlockchainBicBankingContract.sol",
  "compiler": {
    "name": "solc",
    "version": "0.8.10+commit.fc410830.Emscripten.clang"
  },
  "schemaVersion": "3.4.3",
  "updatedAt": "2022-04-01T04:11:01.427Z",
  "devdoc": {
    "kind": "dev",
    "methods": {},
    "version": 1
  },
  "userdoc": {
    "kind": "user",
    "methods": {},
    "version": 1
  }
}